{
  "contractName": "FlightSuretyData",
  "abi": [
    {
      "constant": true,
      "inputs": [],
      "name": "MINIMUM_FUNDS_FOR_ACTIVE_AIRLINE",
      "outputs": [
        {
          "name": "",
          "type": "uint256"
        }
      ],
      "payable": false,
      "stateMutability": "view",
      "type": "function"
    },
    {
      "constant": true,
      "inputs": [
        {
          "name": "",
          "type": "uint256"
        }
      ],
      "name": "passengerAddresses",
      "outputs": [
        {
          "name": "",
          "type": "address"
        }
      ],
      "payable": false,
      "stateMutability": "view",
      "type": "function"
    },
    {
      "constant": true,
      "inputs": [],
      "name": "airlinesCount",
      "outputs": [
        {
          "name": "",
          "type": "uint256"
        }
      ],
      "payable": false,
      "stateMutability": "view",
      "type": "function"
    },
    {
      "constant": true,
      "inputs": [],
      "name": "MAX_INSURANCE_LIMIT",
      "outputs": [
        {
          "name": "",
          "type": "uint256"
        }
      ],
      "payable": false,
      "stateMutability": "view",
      "type": "function"
    },
    {
      "inputs": [],
      "payable": false,
      "stateMutability": "nonpayable",
      "type": "constructor"
    },
    {
      "payable": true,
      "stateMutability": "payable",
      "type": "fallback"
    },
    {
      "constant": true,
      "inputs": [
        {
          "name": "contractAddress",
          "type": "address"
        }
      ],
      "name": "isAuthorized",
      "outputs": [
        {
          "name": "",
          "type": "bool"
        }
      ],
      "payable": false,
      "stateMutability": "view",
      "type": "function"
    },
    {
      "constant": false,
      "inputs": [
        {
          "name": "contractAddress",
          "type": "address"
        }
      ],
      "name": "authorizeCaller",
      "outputs": [],
      "payable": false,
      "stateMutability": "nonpayable",
      "type": "function"
    },
    {
      "constant": true,
      "inputs": [],
      "name": "isOperational",
      "outputs": [
        {
          "name": "",
          "type": "bool"
        }
      ],
      "payable": false,
      "stateMutability": "view",
      "type": "function"
    },
    {
      "constant": false,
      "inputs": [
        {
          "name": "mode",
          "type": "bool"
        }
      ],
      "name": "setOperatingStatus",
      "outputs": [],
      "payable": false,
      "stateMutability": "nonpayable",
      "type": "function"
    },
    {
      "constant": false,
      "inputs": [
        {
          "name": "airlineAddress",
          "type": "address"
        },
        {
          "name": "airlineName",
          "type": "string"
        }
      ],
      "name": "registerAirline",
      "outputs": [],
      "payable": false,
      "stateMutability": "nonpayable",
      "type": "function"
    },
    {
      "constant": false,
      "inputs": [
        {
          "name": "flightCode",
          "type": "string"
        }
      ],
      "name": "buy",
      "outputs": [],
      "payable": true,
      "stateMutability": "payable",
      "type": "function"
    },
    {
      "constant": false,
      "inputs": [
        {
          "name": "flightCode",
          "type": "string"
        }
      ],
      "name": "creditInsurees",
      "outputs": [],
      "payable": false,
      "stateMutability": "nonpayable",
      "type": "function"
    },
    {
      "constant": true,
      "inputs": [],
      "name": "getCurrentPassengerCredit",
      "outputs": [
        {
          "name": "",
          "type": "uint256"
        }
      ],
      "payable": false,
      "stateMutability": "view",
      "type": "function"
    },
    {
      "constant": false,
      "inputs": [
        {
          "name": "passenger",
          "type": "address"
        }
      ],
      "name": "withdraw",
      "outputs": [],
      "payable": false,
      "stateMutability": "nonpayable",
      "type": "function"
    },
    {
      "constant": false,
      "inputs": [],
      "name": "fund",
      "outputs": [],
      "payable": true,
      "stateMutability": "payable",
      "type": "function"
    },
    {
      "constant": true,
      "inputs": [
        {
          "name": "airline",
          "type": "address"
        }
      ],
      "name": "isAirlineRegistered",
      "outputs": [
        {
          "name": "",
          "type": "bool"
        }
      ],
      "payable": false,
      "stateMutability": "view",
      "type": "function"
    },
    {
      "constant": true,
      "inputs": [
        {
          "name": "airline",
          "type": "address"
        }
      ],
      "name": "isAirlineActive",
      "outputs": [
        {
          "name": "",
          "type": "bool"
        }
      ],
      "payable": false,
      "stateMutability": "view",
      "type": "function"
    },
    {
      "constant": true,
      "inputs": [
        {
          "name": "airline",
          "type": "address"
        }
      ],
      "name": "isRegistered",
      "outputs": [
        {
          "name": "",
          "type": "bool"
        }
      ],
      "payable": false,
      "stateMutability": "view",
      "type": "function"
    }
  ],
  "bytecode": "0x60806040526001600060146101000a81548160ff0219169083151502179055503480156200002c57600080fd5b50336000806101000a81548173ffffffffffffffffffffffffffffffffffffffff021916908373ffffffffffffffffffffffffffffffffffffffff16021790555060018060003373ffffffffffffffffffffffffffffffffffffffff1673ffffffffffffffffffffffffffffffffffffffff16815260200190815260200160002060006101000a81548160ff02191690831515021790555060a0604051908101604052803373ffffffffffffffffffffffffffffffffffffffff1681526020016001151581526020016040805190810160405280600a81526020017f55646163697479416972000000000000000000000000000000000000000000008152508152602001600081526020016000815250600260003373ffffffffffffffffffffffffffffffffffffffff1673ffffffffffffffffffffffffffffffffffffffff16815260200190815260200160002060008201518160000160006101000a81548173ffffffffffffffffffffffffffffffffffffffff021916908373ffffffffffffffffffffffffffffffffffffffff16021790555060208201518160000160146101000a81548160ff02191690831515021790555060408201518160010190805190602001906200020092919062000230565b506060820151816002015560808201518160030155905050600560008154809291906001019190505550620002df565b828054600181600116156101000203166002900490600052602060002090601f016020900481019282601f106200027357805160ff1916838001178555620002a4565b82800160010185558215620002a4579182015b82811115620002a357825182559160200191906001019062000286565b5b509050620002b39190620002b7565b5090565b620002dc91905b80821115620002d8576000816000905550600101620002be565b5090565b90565b611be680620002ef6000396000f3006080604052600436106100f1576000357c0100000000000000000000000000000000000000000000000000000000900463ffffffff168063010c5c97146100fb578063095ac34a14610156578063110466ed1461018157806313b0633c146101b05780632c388d5d1461020b5780633fcf1cf41461024e578063492cc7691461028957806351cff8d9146102b7578063536c8e83146102fa5780636fa821dc14610367578063954a7df614610392578063b60d4288146103bd578063c3c5a547146103c7578063cd905dff14610422578063ee38a74914610451578063f9c5d6cc146104ac578063fe9fbb80146104d7575b6100f9610532565b005b34801561010757600080fd5b5061013c600480360381019080803573ffffffffffffffffffffffffffffffffffffffff16906020019092919050505061067e565b604051808215151515815260200191505060405180910390f35b34801561016257600080fd5b5061016b610718565b6040518082815260200191505060405180910390f35b34801561018d57600080fd5b506101ae600480360381019080803515159060200190929190505050610724565b005b3480156101bc57600080fd5b506101f1600480360381019080803573ffffffffffffffffffffffffffffffffffffffff169060200190929190505050610805565b604051808215151515815260200191505060405180910390f35b34801561021757600080fd5b5061024c600480360381019080803573ffffffffffffffffffffffffffffffffffffffff16906020019092919050505061085c565b005b34801561025a57600080fd5b5061028760048036038101908080359060200190820180359060200191909192939192939050505061097a565b005b6102b5600480360381019080803590602001908201803590602001919091929391929390505050610b7b565b005b3480156102c357600080fd5b506102f8600480360381019080803573ffffffffffffffffffffffffffffffffffffffff169060200190929190505050611039565b005b34801561030657600080fd5b506103256004803603810190808035906020019092919050505061132a565b604051808273ffffffffffffffffffffffffffffffffffffffff1673ffffffffffffffffffffffffffffffffffffffff16815260200191505060405180910390f35b34801561037357600080fd5b5061037c611368565b6040518082815260200191505060405180910390f35b34801561039e57600080fd5b506103a76113b2565b6040518082815260200191505060405180910390f35b6103c5610532565b005b3480156103d357600080fd5b50610408600480360381019080803573ffffffffffffffffffffffffffffffffffffffff1690602001909291905050506113b8565b604051808215151515815260200191505060405180910390f35b34801561042e57600080fd5b50610437611411565b604051808215151515815260200191505060405180910390f35b34801561045d57600080fd5b506104aa600480360381019080803573ffffffffffffffffffffffffffffffffffffffff169060200190929190803590602001908201803590602001919091929391929390505050611427565b005b3480156104b857600080fd5b506104c161199d565b6040518082815260200191505060405180910390f35b3480156104e357600080fd5b50610518600480360381019080803573ffffffffffffffffffffffffffffffffffffffff1690602001909291905050506119a9565b604051808215151515815260200191505060405180910390f35b60008060149054906101000a900460ff1615156105dd576040517f08c379a00000000000000000000000000000000000000000000000000000000081526004018080602001828103825260258152602001807f436f6e74726163742069732063757272656e746c79206e6f74206f706572617481526020017f696f6e616c00000000000000000000000000000000000000000000000000000081525060400191505060405180910390fd5b600260003373ffffffffffffffffffffffffffffffffffffffff1673ffffffffffffffffffffffffffffffffffffffff1681526020019081526020016000206002015490506106353482611a0690919063ffffffff16565b600260003373ffffffffffffffffffffffffffffffffffffffff1673ffffffffffffffffffffffffffffffffffffffff1681526020019081526020016000206002018190555050565b60008173ffffffffffffffffffffffffffffffffffffffff16600260008473ffffffffffffffffffffffffffffffffffffffff1673ffffffffffffffffffffffffffffffffffffffff16815260200190815260200160002060000160009054906101000a900473ffffffffffffffffffffffffffffffffffffffff1673ffffffffffffffffffffffffffffffffffffffff16149050919050565b678ac7230489e8000081565b6000809054906101000a900473ffffffffffffffffffffffffffffffffffffffff1673ffffffffffffffffffffffffffffffffffffffff163373ffffffffffffffffffffffffffffffffffffffff161415156107e8576040517f08c379a000000000000000000000000000000000000000000000000000000000815260040180806020018281038252601c8152602001807f43616c6c6572206973206e6f7420636f6e7472616374206f776e65720000000081525060200191505060405180910390fd5b80600060146101000a81548160ff02191690831515021790555050565b6000678ac7230489e80000600260008473ffffffffffffffffffffffffffffffffffffffff1673ffffffffffffffffffffffffffffffffffffffff1681526020019081526020016000206002015410159050919050565b6000809054906101000a900473ffffffffffffffffffffffffffffffffffffffff1673ffffffffffffffffffffffffffffffffffffffff163373ffffffffffffffffffffffffffffffffffffffff16141515610920576040517f08c379a000000000000000000000000000000000000000000000000000000000815260040180806020018281038252601c8152602001807f43616c6c6572206973206e6f7420636f6e7472616374206f776e65720000000081525060200191505060405180910390fd5b60018060008373ffffffffffffffffffffffffffffffffffffffff1673ffffffffffffffffffffffffffffffffffffffff16815260200190815260200160002060006101000a81548160ff02191690831515021790555050565b600080600080600060149054906101000a900460ff161515610a2a576040517f08c379a00000000000000000000000000000000000000000000000000000000081526004018080602001828103825260258152602001807f436f6e74726163742069732063757272656e746c79206e6f74206f706572617481526020017f696f6e616c00000000000000000000000000000000000000000000000000000081525060400191505060405180910390fd5b600093505b600480549050841015610b735760036000600486815481101515610a4f57fe5b9060005260206000200160009054906101000a900473ffffffffffffffffffffffffffffffffffffffff1673ffffffffffffffffffffffffffffffffffffffff1673ffffffffffffffffffffffffffffffffffffffff1681526020019081526020016000209250600083600101878760405180838380828437820191505092505050908152602001604051809103902054141515610b665782600201549150826001018686604051808383808284378201915050925050509081526020016040518091039020549050600083600101878760405180838380828437820191505092505050908152602001604051809103902081905550610b59600282611a2790919063ffffffff16565b8183010183600201819055505b8380600101945050610a2f565b505050505050565b600060149054906101000a900460ff161515610c25576040517f08c379a00000000000000000000000000000000000000000000000000000000081526004018080602001828103825260258152602001807f436f6e74726163742069732063757272656e746c79206e6f74206f706572617481526020017f696f6e616c00000000000000000000000000000000000000000000000000000081525060400191505060405180910390fd5b3273ffffffffffffffffffffffffffffffffffffffff163373ffffffffffffffffffffffffffffffffffffffff16141515610cee576040517f08c379a000000000000000000000000000000000000000000000000000000000815260040180806020018281038252602e8152602001807f4e6f7420616c6c6f77656420746f2062652063616c6c65642066726f6d20636f81526020017f6e7472616374206164647265737300000000000000000000000000000000000081525060400191505060405180910390fd5b600034111515610d8c576040517f08c379a00000000000000000000000000000000000000000000000000000000081526004018080602001828103825260248152602001807f412076616c756520666f7220696e737572616e63652073686f756c642062652081526020017f73656e740000000000000000000000000000000000000000000000000000000081525060400191505060405180910390fd5b610d9533611a51565b1515610e025760043390806001815401808255809150509060018203906000526020600020016000909192909190916101000a81548173ffffffffffffffffffffffffffffffffffffffff021916908373ffffffffffffffffffffffffffffffffffffffff160217905550505b600073ffffffffffffffffffffffffffffffffffffffff16600360003373ffffffffffffffffffffffffffffffffffffffff1673ffffffffffffffffffffffffffffffffffffffff16815260200190815260200160002060000160009054906101000a900473ffffffffffffffffffffffffffffffffffffffff1673ffffffffffffffffffffffffffffffffffffffff161415610f595760408051908101604052803373ffffffffffffffffffffffffffffffffffffffff1681526020016000815250600360003373ffffffffffffffffffffffffffffffffffffffff1673ffffffffffffffffffffffffffffffffffffffff16815260200190815260200160002060008201518160000160006101000a81548173ffffffffffffffffffffffffffffffffffffffff021916908373ffffffffffffffffffffffffffffffffffffffff160217905550602082015181600201559050505b34600360003373ffffffffffffffffffffffffffffffffffffffff1673ffffffffffffffffffffffffffffffffffffffff168152602001908152602001600020600101838360405180838380828437820191505092505050908152602001604051809103902081905550670de0b6b3a7640000341115611035573373ffffffffffffffffffffffffffffffffffffffff166108fc611008670de0b6b3a764000034611af490919063ffffffff16565b9081150290604051600060405180830381858888f19350505050158015611033573d6000803e3d6000fd5b505b5050565b60008060149054906101000a900460ff1615156110e4576040517f08c379a00000000000000000000000000000000000000000000000000000000081526004018080602001828103825260258152602001807f436f6e74726163742069732063757272656e746c79206e6f74206f706572617481526020017f696f6e616c00000000000000000000000000000000000000000000000000000081525060400191505060405180910390fd5b600360008373ffffffffffffffffffffffffffffffffffffffff1673ffffffffffffffffffffffffffffffffffffffff1681526020019081526020016000206002015490506000600360008473ffffffffffffffffffffffffffffffffffffffff1673ffffffffffffffffffffffffffffffffffffffff168152602001908152602001600020600201541115156111e3576040517f08c379a000000000000000000000000000000000000000000000000000000000815260040180806020018281038252601e8152602001807f5468657265206973206e6f2063726564697420746f207769746864726177000081525060200191505060405180910390fd5b803073ffffffffffffffffffffffffffffffffffffffff1631111515611297576040517f08c379a000000000000000000000000000000000000000000000000000000000815260040180806020018281038252602f8152602001807f4e6f7420656e6f7567682062616c616e636520696e20636f6e7472616374207481526020017f6f2077697468647261772066726f6d000000000000000000000000000000000081525060400191505060405180910390fd5b6000600360008473ffffffffffffffffffffffffffffffffffffffff1673ffffffffffffffffffffffffffffffffffffffff168152602001908152602001600020600201819055508173ffffffffffffffffffffffffffffffffffffffff166108fc829081150290604051600060405180830381858888f19350505050158015611325573d6000803e3d6000fd5b505050565b60048181548110151561133957fe5b906000526020600020016000915054906101000a900473ffffffffffffffffffffffffffffffffffffffff1681565b6000600360003373ffffffffffffffffffffffffffffffffffffffff1673ffffffffffffffffffffffffffffffffffffffff16815260200190815260200160002060020154905090565b60055481565b6000600260008373ffffffffffffffffffffffffffffffffffffffff1673ffffffffffffffffffffffffffffffffffffffff16815260200190815260200160002060000160149054906101000a900460ff169050919050565b60008060149054906101000a900460ff16905090565b600060149054906101000a900460ff1615156114d1576040517f08c379a00000000000000000000000000000000000000000000000000000000081526004018080602001828103825260258152602001807f436f6e74726163742069732063757272656e746c79206e6f74206f706572617481526020017f696f6e616c00000000000000000000000000000000000000000000000000000081525060400191505060405180910390fd5b60011515600160003373ffffffffffffffffffffffffffffffffffffffff1673ffffffffffffffffffffffffffffffffffffffff16815260200190815260200160002060009054906101000a900460ff161515141515611599576040517f08c379a000000000000000000000000000000000000000000000000000000000815260040180806020018281038252601b8152602001807f43616c6c65722073686f756c6420626520617574686f72697a6564000000000081525060200191505060405180910390fd5b600073ffffffffffffffffffffffffffffffffffffffff168373ffffffffffffffffffffffffffffffffffffffff161415151561163e576040517f08c379a000000000000000000000000000000000000000000000000000000000815260040180806020018281038252601f8152602001807f4169726c696e6520616464726573732073686f756c642062652076616c69640081525060200191505060405180910390fd5b600260008473ffffffffffffffffffffffffffffffffffffffff1673ffffffffffffffffffffffffffffffffffffffff16815260200190815260200160002060000160149054906101000a900460ff16151515611703576040517f08c379a000000000000000000000000000000000000000000000000000000000815260040180806020018281038252601d8152602001807f4169726c696e6520697320616c7265616479207265676973746572656400000081525060200191505060405180910390fd5b600460ff1660055410156118775760a0604051908101604052808473ffffffffffffffffffffffffffffffffffffffff16815260200160011515815260200183838080601f0160208091040260200160405190810160405280939291908181526020018383808284378201915050505050508152602001600081526020016001815250600260008573ffffffffffffffffffffffffffffffffffffffff1673ffffffffffffffffffffffffffffffffffffffff16815260200190815260200160002060008201518160000160006101000a81548173ffffffffffffffffffffffffffffffffffffffff021916908373ffffffffffffffffffffffffffffffffffffffff16021790555060208201518160000160146101000a81548160ff0219169083151502179055506040820151816001019080519060200190611848929190611b15565b506060820151816002015560808201518160030155905050600560008154809291906001019190505550611998565b600260008473ffffffffffffffffffffffffffffffffffffffff1673ffffffffffffffffffffffffffffffffffffffff168152602001908152602001600020600301600081548092919060010191905055506118df6002600554611a2790919063ffffffff16565b600260008573ffffffffffffffffffffffffffffffffffffffff1673ffffffffffffffffffffffffffffffffffffffff16815260200190815260200160002060030154101515611997576001600260008573ffffffffffffffffffffffffffffffffffffffff1673ffffffffffffffffffffffffffffffffffffffff16815260200190815260200160002060000160146101000a81548160ff0219169083151502179055506005600081548092919060010191905055505b5b505050565b670de0b6b3a764000081565b600060011515600160008473ffffffffffffffffffffffffffffffffffffffff1673ffffffffffffffffffffffffffffffffffffffff16815260200190815260200160002060009054906101000a900460ff161515149050919050565b6000808284019050838110151515611a1d57600080fd5b8091505092915050565b600080600083111515611a3957600080fd5b8284811515611a4457fe5b0490508091505092915050565b600080600090505b600480549050811015611ae9578273ffffffffffffffffffffffffffffffffffffffff16600482815481101515611a8c57fe5b9060005260206000200160009054906101000a900473ffffffffffffffffffffffffffffffffffffffff1673ffffffffffffffffffffffffffffffffffffffff161415611adc5760019150611aee565b8080600101915050611a59565b600091505b50919050565b600080838311151515611b0657600080fd5b82840390508091505092915050565b828054600181600116156101000203166002900490600052602060002090601f016020900481019282601f10611b5657805160ff1916838001178555611b84565b82800160010185558215611b84579182015b82811115611b83578251825591602001919060010190611b68565b5b509050611b919190611b95565b5090565b611bb791905b80821115611bb3576000816000905550600101611b9b565b5090565b905600a165627a7a7230582096079991b9984567a38547387e4a306e8a0bda4d659dfc8cb7be8c22389c41150029",
  "source": "pragma solidity 0.4.24;\n\nimport \"./SafeMath.sol\";\n\ncontract FlightSuretyData {\n    using SafeMath for uint256;\n\n    // CONSTANTS\n    uint256 public constant MAX_INSURANCE_LIMIT = 1 ether;\n    uint256 public constant MINIMUM_FUNDS_FOR_ACTIVE_AIRLINE = 10 ether;\n    uint8 private constant MULTI_PARTY_MIN_AIRLINES = 4;\n\n    /********************************************************************************************/\n    /*                                       DATA VARIABLES                                     */\n    /********************************************************************************************/\n\n    address private contractOwner;\n    bool private operational = true;\n\n    struct Airline {\n        address airlineAddress;\n        bool isRegistered;\n        string name;\n        uint256 funded;\n        uint256 votes;\n    }\n\n    mapping(address => bool) private authorizedContracts;\n\n    mapping(address => Airline) private airlines;\n\n    struct Passenger {\n        address passengerAddress;\n        mapping(string => uint256) insuracesBought;\n        uint256 credit;\n    }\n\n    mapping(address => Passenger) private passengers;\n    address[] public passengerAddresses;\n\n    uint256 public airlinesCount;\n\n    /**\n    * @dev Constructor\n    */\n    constructor () public {\n        contractOwner = msg.sender;\n        authorizedContracts[msg.sender] = true;\n\n        // \tRegister first airline\n        airlines[msg.sender] = Airline({\n                                    airlineAddress: msg.sender,\n                                    isRegistered: true,\n                                    name: \"UdacityAir\",\n                                    funded: 0,\n                                    votes: 0\n                                });\n        airlinesCount++;\n    }\n\n    /********************************************************************************************/\n    /*                                       FUNCTION MODIFIERS                                 */\n    /********************************************************************************************/\n\n    // Modifiers help avoid duplication of code. They are typically used to validate something\n    // before a function is allowed to be executed.\n\n    /**\n    * @dev Modifier that requires the \"operational\" boolean variable to be \"true\"\n    *      This is used on all state changing functions to pause the contract in\n    *      the event there is an issue that needs to be fixed\n    */\n    modifier requireOperationalContract()\n    {\n        require(operational, \"Contract is currently not operational\");\n        _;\n    }\n\n    /**\n    * @dev Modifier that requires the \"ContractOwner\" account to be the function caller\n    */\n    modifier requireContractOwner()\n    {\n        require(msg.sender == contractOwner, \"Caller is not contract owner\");\n        _;\n    }\n\n    /**\n    * @dev Modifier that requires the calling App contract has been authorized\n    */\n    modifier requireAuthorizedCaller()\n    {\n        require(authorizedContracts[msg.sender] == true, \"Caller should be authorized\");\n        _;\n    }\n\n    /********************************************************************************************/\n    /*                                       UTILITY FUNCTIONS                                  */\n    /********************************************************************************************/\n\n\n    function isAuthorized (address contractAddress) external view returns (bool) {\n        return(authorizedContracts[contractAddress] == true);\n    }\n\n    function authorizeCaller (address contractAddress) external requireContractOwner {\n        authorizedContracts[contractAddress] = true;\n    }\n\n    function isOperational() public view returns (bool) {\n        return operational;\n    }\n\n    function setOperatingStatus(bool mode) external requireContractOwner {\n        operational = mode;\n    }\n\n    function isPassengerAdded(address passengerAddress) internal view returns (bool) {\n        for (uint256 i = 0; i < passengerAddresses.length; i++) {\n            if (passengerAddresses[i] == passengerAddress) {\n                return true;\n            }\n        }\n        return false;\n    }\n\n    /********************************************************************************************/\n    /*                                     SMART CONTRACT FUNCTIONS                             */\n    /********************************************************************************************/\n\n    function registerAirline(address airlineAddress, string airlineName) external\n        requireOperationalContract\n        requireAuthorizedCaller {\n\n        require(airlineAddress != address(0), \"Airline address should be valid\");\n        require(!airlines[airlineAddress].isRegistered, \"Airline is already registered\");\n\n        if(airlinesCount < MULTI_PARTY_MIN_AIRLINES){\n            airlines[airlineAddress] = Airline({\n                                         airlineAddress: airlineAddress,\n                                         isRegistered: true,\n                                         name: airlineName,\n                                         funded: 0,\n                                         votes: 1\n                                        });\n            airlinesCount++;\n        } else {\n            airlines[airlineAddress].votes++;\n            if (airlines[airlineAddress].votes >= airlinesCount.div(2)) {\n                airlines[airlineAddress].isRegistered = true;\n                airlinesCount++;\n            }\n        }\n    }\n\n   /**\n    * @dev Buy insurance for a flight\n    *\n    */\n    function buy (string flightCode) external payable requireOperationalContract {\n        require(msg.sender == tx.origin, \"Not allowed to be called from contract address\");\n        require(msg.value > 0, 'A value for insurance should be sent');\n\n        if(!isPassengerAdded(msg.sender)){\n            passengerAddresses.push(msg.sender);\n        }\n\n        if (passengers[msg.sender].passengerAddress == address(0)) {\n            passengers[msg.sender] = Passenger({\n                                        passengerAddress: msg.sender,\n                                        credit: 0\n                                     });\n        }\n\n        passengers[msg.sender].insuracesBought[flightCode] = msg.value;\n\n        if (msg.value > MAX_INSURANCE_LIMIT) {\n            msg.sender.transfer(msg.value.sub(MAX_INSURANCE_LIMIT));\n        }\n    }\n\n    /**\n     *  @dev Credits payouts to insurees\n    */\n    function creditInsurees (string flightCode) external requireOperationalContract {\n        for (uint256 i = 0; i < passengerAddresses.length; i++) {\n            Passenger storage passenger = passengers[passengerAddresses[i]];\n\n            if(passenger.insuracesBought[flightCode] != 0) {\n                uint256 currentCredit = passenger.credit;\n                uint256 payedInsurance = passenger.insuracesBought[flightCode];\n                passenger.insuracesBought[flightCode] = 0;\n                passenger.credit = currentCredit + payedInsurance + payedInsurance.div(2);\n            }\n        }\n    }\n\n    function getCurrentPassengerCredit() external view returns (uint256) {\n        return passengers[msg.sender].credit;\n    }\n    \n    /**\n     *  @dev Transfers eligible payout funds to insuree\n     *\n    */\n    function withdraw (address passenger) public requireOperationalContract {\n        uint credit = passengers[passenger].credit;\n        require(passengers[passenger].credit > 0, \"There is no credit to withdraw\");\n        require(address(this).balance > credit, \"Not enough balance in contract to withdraw from\");\n        passengers[passenger].credit = 0;\n        passenger.transfer(credit);\n    }\n\n   /**\n    * @dev Initial funding for the insurance. Unless there are too many delayed flights\n    *      resulting in insurance payouts, the contract should be self-sustaining\n    *\n    */\n    function fund () public payable requireOperationalContract {\n        uint256 currentFund = airlines[msg.sender].funded;\n        airlines[msg.sender].funded = currentFund.add(msg.value);\n    }\n\n    function isAirlineRegistered (address airline) external view returns (bool) {\n        return airlines[airline].airlineAddress == airline;\n    }\n\n    function getFlightKey (address airline, string memory flight, uint256 timestamp) internal pure returns(bytes32) {\n        return keccak256(abi.encodePacked(airline, flight, timestamp));\n    }\n\n    function isAirlineActive ( address airline) public view returns(bool) {\n        return(airlines[airline].funded >= MINIMUM_FUNDS_FOR_ACTIVE_AIRLINE);\n    }\n\n    function isRegistered ( address airline) public view returns(bool) {\n        return airlines[airline].isRegistered;\n    }\n\n    /**\n    * @dev Fallback function for funding smart contract.\n    *\n    */\n    function() external payable {\n        fund();\n    }\n}\n\n",
  "sourcePath": "/Users/yassin.belal/Documents/ethereum/Flight/v2/FlightSurety/contracts/FlightSuretyData.sol",
  "compiler": {
    "name": "solc",
    "version": "0.4.24+commit.e67f0147.Emscripten.clang"
  },
  "schemaVersion": "3.4.8",
  "updatedAt": "2022-12-08T23:36:50.099Z",
  "networkType": "ethereum",
  "devdoc": {
    "methods": {
      "buy(string)": {
        "details": "Buy insurance for a flight    "
      },
      "creditInsurees(string)": {
        "details": "Credits payouts to insurees"
      },
      "fund()": {
        "details": "Initial funding for the insurance. Unless there are too many delayed flights     resulting in insurance payouts, the contract should be self-sustaining    "
      },
      "withdraw(address)": {
        "details": "Transfers eligible payout funds to insuree    "
      }
    }
  },
  "userdoc": {
    "methods": {
      "isAuthorized(address)": {
        "notice": "*****************************************************************************************"
      },
      "registerAirline(address,string)": {
        "notice": "*****************************************************************************************"
      }
    }
  }
}